:020000040800F2
:10000000B0050020451100088D0C00088F0C000879
:10001000910C0008930C0008950C000800000000EB
:10002000000000000000000000000000970C000825
:10003000990C0008000000009B0C0008D90C000877
:100040006111000865110008691100086D110008B0
:1000500071110008751100088D0D00087911000854
:100060007D11000881110008851100088911000820
:100070008D110008911100089511000899110008D0
:100080009D110008A1110008430D0008A5110008EA
:10009000A9110008AD110008B1110008B511000840
:1000A000B9110008BD110008C1110008C5110008F0
:1000B000C9110008CD11000800000000D11100088E
:1000C000D51100080000000000000000D911000850
:1000D00000000000DD110008E1110008E511000832
:1000E000E9110008ED110008000000000000000008
:1000F0000000000000000000000000000000000000
:1001000000000000000000000000000000000000EF
:100110000000000000000000F1110008F5110008C7
:1001200000000000000000000000000000000000CF
:1001300000000000000000000000000000000000BF
:10014000F9110008FD11000800000000530E00081E
:10015000270E000801120008051200080912000805
:100160000D1200081112000800000000000000003D
:10017000000000000000000000000000000000007F
:100180000000000015120008052904BF114600F008
:1001900005B900F018B970B50E46052E04461D4687
:1001A0002AD1114600F0FAF82268D4F8A033A869E1
:1001B000696823F480330343286822F02002024355
:1001C00022F400620A43A868E96822F480620243CC
:1001D00022F0C0620A432869696922F00062024382
:1001E00022F0404242EA8102E86922F000520243D2
:1001F0002260C4F8A03370BD00F0E5F82A4631460D
:100200002046BDE8704000F0F9B802681143016073
:100210007047C0F89413704738B5D443042906D901
:100220004D1F0BD1002BC16800D026E028E000F064
:100230001EF800D027E00C40C0F88C4031BD0429E6
:1002400002D94B1F07D107E000EBC110D0F888108E
:100250000A43C0F88820704781680A43826070476B
:1002600000BFD0F88C231143C0F88C13704700EB0B
:10027000C110002BD0F88C1070470A43C26031BD0A
:100280000C40C46031BD0A43C0F88C2031BDF0B5CC
:1002900000EBC11000F180031C689E6E5D6E586D0E
:1002A00011793C48064001F01F01906897690E43A0
:1002B000D168064325F480750D431069116825F453
:1002C000F055054324F040040C43D069516924F4EF
:1002D0008024044324F0FC740C431C609E665D661D
:1002E0005F65F0BD00EBC110012A81B000F1800113
:1002F00006D0022A07D0042A1AD0082A1AD015E0FC
:100300001A68CA6112E018684862586870B10A68D1
:1003100022F44052104308605868B0F5005F18D0CE
:100320005A68B2F5405F01D19868886201B07047A1
:100330001868FAE71868C86258680028F6D00A6892
:1003400022F4404242EA80020A605868B0F5005F39
:10035000E6D19A68D5E7A1E010B500EBC1110E48CF
:10036000D1F8B83014680340506843EA842303434B
:1003700090685469034310690343D068034390694C
:1003800043EA04430343106A0343D0690343C1F8BB
:10039000B83010BDE0FFFF7F0020FF3D0268D208AB
:1003A000D200026003688A6813430360026822F087
:1003B000180202600368CA68134303600A68426156
:1003C00049688161704710B500EBC11000F18001F0
:1003D0000B68DB08DB000B600C68906804430C6062
:1003E000086820F0180008600B68D06803430B60B1
:1003F000106848615068886110BD0000F0B500EBDE
:10040000C115D5F88060D0F8A0731468536826F041
:100410002006264326F400661E439468D36826F41B
:100420008066264326F0C0661E431469536926F091
:100430000066264326F07046D4691E4326F4003633
:10044000B4F1005F08BF46F40036042921D8DFE884
:1004500001F003090F151B00916927F4003747EAE3
:10046000410716E0916927F4802747EA810710E0E9
:10047000916927F4002747EAC1070AE0916927F448
:10048000801747EA011704E0916927F4001747EA4B
:100490004117C5F88060C0F8A073F0BD38B500EB17
:1004A000C11000F1BC0100248D6A012A14D0022A77
:1004B00017D0042A10D0082A13D0102A0CD0202AD2
:1004C0000FD0402A08D0802A0BD0B2F5807F03D00D
:1004D000B2F5007F05D009E0586808609868486068
:1004E00004E05868886010249868C860FE20A04026
:1004F00085431A68D8680243186902435869024361
:1005000098690243D869024302FA04F42C438C62CE
:1005100031BDF0B40246106895681318506803EBBB
:100520005004C00721D54D441FE0F0BC02F10C007F
:10053000704713F8017B05F8017B491EF9D1A0B182
:10054000B60813F8011B06F00306032E08BF13F8C4
:10055000016B01EB06214942801C294405D011F8AA
:10056000016B05F8016B401EF9D1A342DDD013F8F1
:10057000016B16F0030104BF13F8011BC91C3009FD
:100580000F28DAD113F8010B0F30D6E710B5DFF8DA
:10059000E822136823F4741313600843146820439B
:1005A000106010BD2DE9F841DFF8CC22DFF8CC3225
:1005B00001461068002400F00C00082815D11068CE
:1005C0001568C0F38344A41CE80358BFDFF8B002E9
:1005D00008D5906A00F00F001D46401CB5FBF0F5F1
:1005E00020462C464443204600E018460860DFF8C9
:1005F00094621068C0F30310355CD1F800C02CFA87
:1006000005F048601768C7F30227F75D20FA07F77F
:100610008F601768C7F3C227F75DF840C860906A1B
:100620004FEA101E06F110000EF00F0830F8180007
:100630005FEACE6E02D508B1B4FBF0FCC1F810C081
:10064000906A4FEA502C06F110000CF00F0630F8BB
:1006500016005FEACC6603D510B1B4FBF0F000E001
:1006600008684861D06AC60654BF184608688861A1
:10067000D06A860654BF18460868C861D06A460624
:1006800054BF1846086808626000D66AF60505D5AA
:100690000E68A64204BFAF42064600D0CE684E6246
:1006A000D66AF60405D50E68A64204BFAF420646D8
:1006B00000D0CE688E62D66AB60505D50E68A64211
:1006C00004BFAF42064600D0CE68CE62D66A760539
:1006D00005D50E68A64204BFAF42064600D0CE68DC
:1006E0004E64D66A360505D50E68A64204BFAF42F1
:1006F000064600D0CE688E64D66AB60405D50E686C
:10070000A64204BFAF42C86401D0C86888644FF4F1
:100710000040D46A14F0030F02D18C680C6314E01B
:10072000D46A04F00304012C02D10D680D630CE0BF
:10073000D46A04F00304022C08BF086305D0D46A0D
:1007400004F00304032C08BF0B63D46A14F4403F85
:1007500002D18C684C6317E0D46A04F44034B4F5D9
:10076000803F02D10D684D630EE0D46A04F440343A
:10077000B4F5003F08BF486306D0D46A04F440349F
:10078000B4F5403F08BF4B63D46A14F4402F02D144
:100790008C688C6317E0D46A04F44024B4F5802F8D
:1007A00002D10D688D630EE0D46A04F44024B4F5E0
:1007B000002F08BF886306D0D46A04F44024B4F53F
:1007C000402F08BF8B63D46A14F4401F02D18C6899
:1007D000CC6317E0D46A04F44014B4F5801F02D14E
:1007E0000D68CD630EE0D46A04F44014B4F5001F24
:1007F00008BFC86306D0D46A04F44014B4F5401F9F
:1008000008BFCB63D46A14F4400F08BF88680CD0CB
:10081000D46A04F44004B4F5800F0FBF0868D46AAA
:1008200004F44004B4F5000F01D1086406E0D06A76
:1008300000F44000B0F5400F08BF0B64BDE8F18143
:1008400011490A6822F480520A600B681843086054
:1008500070470E4A0029116814BF084321EA0000BE
:10086000106070470A4A0029116814BF084321EA42
:1008700000001060704700000410024000127A006F
:1008800000093D00C4000020301002401410024056
:100890001810024000B583B001214FF40030FFF77B
:1008A000D8FF01214FF48020FFF7D3FF01214FF43F
:1008B0008000FFF7CEFF7020012100908DF804101A
:1008C000002003218DF806008DF805108DF8070033
:1008D00069464FF0904000F053F907BD10B5A04CA9
:1008E0002046FFF75FFE60684FF47A71B0FBF1F0CD
:1008F000401EB0F1807F08D29A499B4A4860F020A0
:10090000107000228A6007200860FFF7C3FF00F024
:100910000AF8002010BDBDEEC00A10EE100A93497F
:1009200080B20860704770B5A2B04FF420410091CA
:100930004FF48050FFF784FF01214FF00050FFF784
:1009400091FF01210120FFF78DFF01214FF460206D
:10095000FFF77FFF864C874D0120E0714FF48076D2
:100960000320607126600220207121460020A071C2
:100970004FF0904000F004F90D2208214FF0904014
:1009800000F03EF9002008900421099108200A9007
:1009900000210B910C910D910E910F9108AB01224A
:1009A0002846FFF7D8FC0020E06120616061E0602C
:1009B0006062A0622062A66104F10C020021284658
:1009C000FFF765FC00201F901E90209040F213114D
:1009D00018901A901D9140F23340002119901B91FC
:1009E0001C9118AA2846FFF7B7FC00201690139018
:1009F00010904FF0006114914FF0005017900021BB
:100A000012911191159110AB04AA2846FFF7C3FB70
:100A1000009804900A210591002008210690079172
:100A200004AA00212846FFF7AFFB0020029001AB8B
:100A30004FF4805003900190012200212846FFF7D7
:100A400051FC442020720020A07260720120E072EC
:100A500004F1080000F0E6F80123102200212846E6
:100A6000FFF7DAFB012100F00CF8022100F009F891
:100A7000042100F006F8082100F003F800F004F863
:100A8000FEE72846FFF7C5BB38B500F045F800F093
:100A900037F80820E0600122002100F03AF8002039
:100AA000A060231D042000F031F800F023F8082294
:100AB000012115E038B500F02FF800F021F84FF4CF
:100AC000805000F023F80020A060231D0420E06087
:100AD0000222002100F01DF800F00CF80122002194
:100AE00000F017F84FF4C0212846FFF78EFB0020D6
:100AF000208031BD0420A060231D0020E0607047ED
:100B00001D4C1C4D0420A060231D7047E060042292
:100B100001212846FFF71FBC38B5174C154D0020A2
:100B2000A060E060231D01220021FFF7F2FF231DDA
:100B300002220021FFF7EDFF231DFFF7E8FF231D31
:100B4000284601B0BDE8304008220121FFF703BC70
:100B50000A49486810B14A68521E4A60704700004E
:100B60001801002010E000E023ED00E0A87701402C
:100B700068010020007401400000002024000020D3
:100B8000F0B5002201250B6895402B40AB4228D1DF
:100B9000530003249C400E79E443012E18BF022E1B
:100BA00010D186682640866086684F799F403E4314
:100BB0008660868826EA0505858085888E79964038
:100BC0003543858005682540056005680E799E409F
:100BD00035430560C5682C40CD7905FA03F32343FE
:100BE000C360521C102ACDD3F0BD02460020128AE9
:100BF0000A4218BF01207047816170470185704724
:100C000010B5CB0800EB8300890001F01C01036ADA
:100C10000F248C40A34303628A40036A1A43026292
:100C200010BD000070B50378C1781C460122D9B10F
:100C3000124B1B68457803F4E063C3F5E0631B0ABD
:100C4000C3F104018D4081780F26DE4031400D4311
:100C50000B4B2D011D5501780A4B01F01F008240FE
:100C6000490943F8212070BD03F01F03064802FA2A
:100C700003F3640940F8243070BD00000CED00E07F
:100C800000E400E000E100E080E100E07047FEE702
:100C9000FEE7FEE7FEE770477047704710B5884CE7
:100CA00061682268B1FBF0F300FB131010B9521E0B
:100CB0009241D20F1100226005D010214FF09040D8
:100CC000FFF79AFF04E010214FF09040FFF796FFE6
:100CD0006068401C606010BD10B5FFF739FF4FF42D
:100CE000FA70FFF7DBFF7748774900780A78012828
:100CF00025D14878401C4870C0B205281FDB002071
:100D0000724B48701C8872480460887868B9521C1D
:100D1000D2B21F2A13DB18882030188000221B88CB
:100D2000B3F5247F0BDB012008E01888441E1C80EB
:100D300040F201141B88A34201DA002088700A7077
:100D400010BD80B540214FF0A04000F0F6F8B8B1DA
:100D5000022201215F48FFF772FA01214FF0A04003
:100D600000F0DDF85C49086002214FF0A04000F07F
:100D7000D6F85A49086040214FF0A04000F0E4F84E
:100D8000BDE802404FF0A04000F0C4B810B501200B
:100D900000F0DCF8022000F0D9F85148514A012156
:100DA00001801088002839D14F4A504C1170002022
:100DB00000F0D5F801280DD1641EF8D100204C496F
:100DC000087000F0DFF84B480178491E8941C90FCF
:100DD000017010BD46480178491C01704FF48C72B7
:100DE00045490A60F0224A60C8228A604FF4B47212
:100DF000CA604FF4A0720A61002251F822301B032E
:100E000040F6E444B3FBF4F441F82240521C052AB6
:100E1000F3D301780429A4BF01220270BDE8104079
:100E2000002000F0AFB880B53449088850B1344A8A
:100E30001188012904D0022908BFFFF73BFE01E019
:100E4000FFF722FEBDE80840102200212148FFF7ED
:100E5000F6B910B54FF400311E482A4CFFF700FADE
:100E600029482A4A90ED000AD0ED000A2848BCEE35
:100E7000C00A10EE101AB8EE400A70EEC00AB2EEC8
:100E8000001A60EE810AC0ED000AFCEEE00A10EEE6
:100E9000900A02EB0010227830F8120020B1491CB1
:100EA00000EE101AB8EE400AFFF735FD2078401C1E
:100EB000207021780829A4BF0020207010BD0000F8
:100EC00008010020A8010020A0010020100100203E
:100ED0001C7601400074014094010020980100201C
:100EE000A4010020A60100202400002040420F00A1
:100EF00014010020A30100202C000020000000208D
:100F000012010020A9010020C000002040000020A4
:100F10009C010020816841F020018160704781B010
:100F2000002200920090890000987C3109180091FD
:100F30000098006880B201B0704702460020126835
:100F40000A4218BF01207047016070470FF2280164
:100F5000074A31F8101052F82000018570470FF24F
:100F60002001044A31F8101052F82000FFF73DBE6E
:100F7000F400002004010020400000010002800075
:100F80000100000000BF012200F01F018A4040095B
:100F9000024901EB40100260704700001404014058
:100FA00010B52548254C82B0016841F470010160FC
:100FB000206840F0010020606168214801406160C4
:100FC0002268204802402260206820F480202060AF
:100FD000E16A1D4809090901E162216B01402163B1
:100FE0000020A060009000904FF46011FFF7CEFA4F
:100FF000164912220A60606860606068606060681C
:1010000040F480606060216841F080712160206858
:101010008101FCD56068800880006060606840F0F5
:1010200002006060606800F00C000828FAD14FF000
:1010300000610748016013BD88ED00E00010024028
:101040000CC0C008FFFFF6FECCFEF0FF00200240FF
:1010500008ED00E019E050F8042BD30744BFA9F1D4
:1010600001039A18091F0023042942F8043BF9D20E
:101070005FEA817C134604D54FF0000CA2F800C053
:101080009B1CC90744BF0021197050F8041B00299C
:10109000E1D1704710B5074979441831064C7C44BA
:1010A000163404E00A68081D114488470146A1422D
:1010B000F8D110BD2C000000480000004EF6885109
:1010C000CEF20001086840F470000860BFF34F8F53
:1010D000BFF36F8F4FF00070E1EE100A7047000011
:1010E00075FFFFFF940000001801002000000000C1
:1010F00023F4FFFF24010000C000000000000020D6
:1011000000F00BF8002801D0FFF7C4FF0020AFF378
:101110000080FFF7E3FB00F002F80120704700F0C9
:1011200001B800000746384600F002F8FBE700006F
:1011300080B5AFF30080024A11001820ABBEFBE778
:10114000260002000148804701480047A10F00081F
:1011500055110008AFF30080FFF7B0FFFFF7D0FF95
:10116000FFF7FEBFFFF7FEBFFFF7FEBFFFF7FEBFB3
:10117000FFF7FEBFFFF7FEBFFFF7FEBFFFF7FEBFA3
:10118000FFF7FEBFFFF7FEBFFFF7FEBFFFF7FEBF93
:10119000FFF7FEBFFFF7FEBFFFF7FEBFFFF7FEBF83
:1011A000FFF7FEBFFFF7FEBFFFF7FEBFFFF7FEBF73
:1011B000FFF7FEBFFFF7FEBFFFF7FEBFFFF7FEBF63
:1011C000FFF7FEBFFFF7FEBFFFF7FEBFFFF7FEBF53
:1011D000FFF7FEBFFFF7FEBFFFF7FEBFFFF7FEBF43
:1011E000FFF7FEBFFFF7FEBFFFF7FEBFFFF7FEBF33
:1011F000FFF7FEBFFFF7FEBFFFF7FEBFFFF7FEBF23
:10120000FFF7FEBFFFF7FEBFFFF7FEBFFFF7FEBF12
:10121000FFF7FEBFFFF7FEBFF311010001612412CB
:10122000180912F00C12C80412680CF210403D614B
:1012300021C1088106F10904C106F10108610220FB
:101240000200401C444F20020102030404801706E0
:10125000070809010002000400060008000A000C4B
:1012600000100020004000808512001DB24804706C
:08127000010000481D120156A7
:040000050800115589
:00000001FF
