:020000040800F2
:1000000078050020C90B0008650400086704000893
:10001000690400086B0400086D040008000000007B
:100020000000000000000000000000006F04000855
:100030007104000800000000730400087504000843
:10004000E50B0008E90B0008ED0B0008F10B0008B8
:10005000F50B0008F90B00084B050008FD0B000824
:10006000010C0008050C0008090C00080D0C000824
:10007000110C0008150C0008190C00081D0C0008D4
:10008000210C0008250C000801050008290C0008B7
:100090002D0C0008310C0008350C0008390C000844
:1000A0003D0C0008410C0008450C0008490C0008F4
:1000B0004D0C0008510C000800000000550C000811
:1000C000590C000800000000000000005D0C000852
:1000D00000000000610C0008650C0008690C0008B5
:1000E0006D0C0008710C000800000000000000000A
:1000F0000000000000000000000000000000000000
:1001000000000000000000000000000000000000EF
:100110000000000000000000750C0008790C0008C9
:1001200000000000000000000000000000000000CF
:1001300000000000000000000000000000000000BF
:100140007D0C0008810C000800000000110600086A
:10015000E5050008850C0008890C00088D0C0008D6
:10016000910C0008950C0008000000000000000041
:10017000000000000000000000000000000000007F
:1001800000000000990C000810B5DFF8C4221368C5
:1001900023F474131360084314682043106010BDE7
:1001A0002DE9F841DFF8A822DFF8A83201461068EF
:1001B000002400F00C00082815D110681568C0F361
:1001C0008344A41CE80358BFDFF88C0208D5906A6A
:1001D00000F00F001D46401CB5FBF0F520462C46F4
:1001E0004443204600E018460860DFF8706210685B
:1001F000C0F30310355CD1F800C02CFA05F048605C
:100200001768C7F30227F75D20FA07F78F601768B2
:10021000C7F3C227F75DF840C860906A4FEA101E26
:1002200006F110000EF00F0830F818005FEACE6EED
:1002300002D508B1B4FBF0FCC1F810C0906A4FEAD7
:10024000502C06F110000CF00F0630F816005FEA93
:10025000CC6603D510B1B4FBF0F000E0086848614B
:10026000D06AC60654BF184608688861D06A8606F8
:1002700054BF18460868C861D06A460654BF18467D
:10028000086808626000D66AF60505D50E68A642C1
:1002900004BFAF42064600D0CE684E62D66AF6046E
:1002A00005D50E68A64204BFAF42064600D0CE6810
:1002B0008E62D66AB60505D50E68A64204BFAF4267
:1002C000064600D0CE68CE62D66A760505D50E68A1
:1002D000A64204BFAF42064600D0CE684E64D66A3E
:1002E000360505D50E68A64204BFAF42064600D0CB
:1002F000CE688E64D66AB60405D50E68A64204BFE1
:10030000AF42C86401D0C86888644FF40040D46A22
:1003100014F0030F02D18C680C6314E0D46A04F06B
:100320000304012C02D10D680D630CE0D46A04F0C3
:100330000304022C08BF086305D0D46A04F0030448
:10034000032C08BF0B63D46A14F4403F02D18C68BD
:100350004C6317E0D46A04F44034B4F5803F02D112
:100360000D684D630EE0D46A04F44034B4F5003FE8
:1003700008BF486306D0D46A04F44034B4F5403F63
:1003800008BF4B63D46A14F4402F02D18C688C638D
:1003900017E0D46A04F44024B4F5802F02D10D682C
:1003A0008D630EE0D46A04F44024B4F5002F08BF36
:1003B000886306D0D46A04F44024B4F5402F08BF03
:1003C0008B63D46A14F4401F02D18C68CC6317E0AD
:1003D000D46A04F44014B4F5801F02D10D68CD63D3
:1003E0000EE0D46A04F44014B4F5001F08BFC863DB
:1003F00006D0D46A04F44014B4F5401F08BFCB63A0
:10040000D46A14F4400F08BF88680CD0D46A04F48E
:100410004004B4F5800F0FBF0868D46A04F44004A8
:10042000B4F5000F01D1086406E0D06A00F4400082
:10043000B0F5400F08BF0B64BDE8F181084A002900
:10044000116814BF084321EA0000106070470000E3
:100450000410024000127A0000093D00140100203F
:10046000141002407047FEE7FEE7FEE7FEE7704724
:100470007047704710B500F0CEF9804C606800EB13
:10048000D0714910B0EB410005D110214FF09040E0
:1004900000F010FA04E010214FF0904000F00CFA48
:1004A00060687749401C606008782178012825D170
:1004B0006078401C6070C0B204281FDD0020714AC3
:1004C0006070138870480360A07868B9491CC9B28D
:1004D0001F2913DB10882030108000211288B2F50C
:1004E000247F0BDB012008E01088431E138040F2BC
:1004F000011312889A4201DA0020A070217010BD09
:1005000080B540214FF0A04000F0EBF9B8B10222D5
:1005100001215E4800F0F2F901214FF0A04000F007
:10052000D2F95B49086002214FF0A04000F0CBF9FE
:100530005849086040214FF0A04000F0D9F9BDE8CB
:1005400002404FF0A04000F0B9B910B5012000F012
:1005500029FA022000F026FA4F48504A0121018072
:100560001088002839D14E4A4E4C1170002000F0FE
:1005700022FA01280DD1641EF8D100204A490870E2
:1005800000F02CFA49480178491E8941C90F0170D1
:1005900010BD45480178491C01704FF48C724449E4
:1005A0000A60F0224A60C8228A604FF4B472CA60BE
:1005B0004FF4A0720A61002251F822301B0340F66A
:1005C000E444B3FBF4F441F82240521C052AF3D36F
:1005D00001780429A4BF01220270BDE81040002068
:1005E00000F0FCB980B53349088850B1324A11880F
:1005F000012904D0022908BF00F0BFF801E000F093
:10060000A6F8BDE8084010220021204800F076B985
:1006100010B54FF400311D48284C00F080F92848EF
:10062000284A90ED000AD0ED000A2748BCEEC00A27
:1006300010EE101AB8EE400A70EEC00AB2EE001AC0
:1006400060EE810AC0ED000AFCEEE00A10EE900AAE
:1006500002EB0010227830F8120020B1491C00EEA5
:10066000101AB8EE400A00F06AF82078401C20709A
:1006700021780829A4BF0020207010BD600100204F
:10068000760100206C0100201C76014000740140BE
:10069000580100205C010020700100207201002040
:1006A0000000002040420F0074010020750100206E
:1006B0007C000020580000206E01002077010020FF
:1006C00010010020900000206801002000B583B0D8
:1006D00001214FF40030FFF7B1FE01214FF48020DB
:1006E000FFF7ACFE01214FF48000FFF7A7FE70205A
:1006F000012100908DF80410002003218DF80600E0
:100700008DF805108DF8070069464FF0904000F015
:1007100095F807BD10B5434C04F10800FFF740FD04
:100720004148424A40F2E7314160F0211170002215
:100730008260072101602270FFF7C8FFFEE7BDEE6F
:10074000C00A10EE100A3A4980B20860704738B506
:1007500000F045F800F037F80820E06001220021A1
:1007600000F03AF80020A060231D042000F031F8CA
:1007700000F023F80822012115E038B500F02FF829
:1007800000F021F84FF4805000F023F80020A06022
:10079000231D0420E0600222002100F01DF800F07B
:1007A0000CF80122002100F017F84FF4C021284670
:1007B00000F0A0F80020208031BD0420A060231D9F
:1007C0000020E06070471B4C1B4D0420A060231DDF
:1007D0007047E06004220121284600F0A7B838B530
:1007E000144C154D0020A060E060231D0122002163
:1007F000FFF7F2FF231D02220021FFF7EDFF231D6B
:10080000FFF7E8FF231D284601B0BDE8304008226D
:10081000012100F08BB80349486810B14A68521EA4
:100820004A6070470000002010E000E023ED00E087
:10083000A87701405800002000740140F0B5002264
:1008400001250B6895402B40AB4228D1530003246F
:100850009C400E79E443012E18BF022E10D1866809
:100860002640866086684F799F403E438660868832
:1008700026EA0505858085888E79964035438580F2
:1008800005682540056005680E799E403543056082
:10089000C5682C40CD7905FA03F32343C360521C8D
:1008A000102ACDD3F0BD02460020128A0A4218BF9A
:1008B000012070478161704701857047816841F070
:1008C00020018160704781B0002200920090890071
:1008D00000987C31091800910098006880B201B03E
:1008E00070470246002012680A4218BF0120704774
:1008F000016070470268114301607047042902D902
:100900004B1F07D107E000EBC110D0F888100A4355
:10091000C0F88820704781680A438260704700BF32
:10092000D0F88C231143C0F88C137047FFE738B51B
:1009300000EBC11000F1BC0100248D6A012A14D023
:10094000022A17D0042A10D0082A13D0102A0CD05B
:10095000202A0FD0402A08D0802A0BD0B2F5807F01
:1009600003D0B2F5007F05D009E0586808609868A8
:10097000486004E05868886010249868C860FE20C9
:10098000A04085431A68D868024318690243586931
:10099000024398690243D869024302FA04F42C43E3
:1009A0008C6231BD0FF22801074A31F8101052F85D
:1009B0002000018570470FF22001044A31F8101021
:1009C00052F82000FFF76FBF4401002054010020BF
:1009D00040000001000280000100000000BF012271
:1009E00000F01F018A404009024901EB40100260FB
:1009F000704700001404014010B52548254C82B012
:100A0000016841F470010160206840F0010020603D
:100A100061682148014061602268204802402260EC
:100A2000206820F480202060E16A1D48090909013E
:100A3000E162216B014021630020A06000900090E2
:100A40004FF46011FFF7A0FB164912220A6060689C
:100A5000606060686060606840F480606060216829
:100A600041F08071216020688101FCD560688008B8
:100A700080006060606840F002006060606800F0C4
:100A80000C000828FAD14FF000610748016013BD3F
:100A900088ED00E0001002400CC0C008FFFFF6FE29
:100AA000CCFEF0FF0020024008ED00E0F0B402466A
:100AB000106895681318506803EB5004C00721D5DF
:100AC0004D441FE0F0BC02F10C00704713F8017BAD
:100AD00005F8017B491EF9D1A0B1B60813F8011B36
:100AE00006F00306032E08BF13F8016B01EB062185
:100AF0004942801C294405D011F8016B05F8016BAF
:100B0000401EF9D1A342DDD013F8016B16F00301AA
:100B100004BF13F8011BC91C30090F28DAD113F8E0
:100B2000010B0F30D6E7000010B5074979441831A2
:100B3000064C7C44163404E00A68081D11448847BA
:100B40000146A142F8D110BD2C0000003800000081
:100B50004EF68851CEF20001086840F4700008603B
:100B6000BFF34F8FBFF36F8F4FF00070E1EE100AAD
:100B70007047000039FFFFFF24010000C2000000A1
:100B80000000002000F00BF8002801D0FFF7CCFF98
:100B90000020AFF30080FFF7BDFD00F002F8012058
:100BA000704700F001B800000746384600F002F830
:100BB000FBE7000080B5AFF30080024A1100182067
:100BC000ABBEFBE726000200014880470148004712
:100BD000F9090008D90B0008AFF30080FFF7B8FF50
:100BE000FFF7D0FFFFF7FEBFFFF7FEBFFFF7FEBF27
:100BF000FFF7FEBFFFF7FEBFFFF7FEBFFFF7FEBF29
:100C0000FFF7FEBFFFF7FEBFFFF7FEBFFFF7FEBF18
:100C1000FFF7FEBFFFF7FEBFFFF7FEBFFFF7FEBF08
:100C2000FFF7FEBFFFF7FEBFFFF7FEBFFFF7FEBFF8
:100C3000FFF7FEBFFFF7FEBFFFF7FEBFFFF7FEBFE8
:100C4000FFF7FEBFFFF7FEBFFFF7FEBFFFF7FEBFD8
:100C5000FFF7FEBFFFF7FEBFFFF7FEBFFFF7FEBFC8
:100C6000FFF7FEBFFFF7FEBFFFF7FEBFFFF7FEBFB8
:100C7000FFF7FEBFFFF7FEBFFFF7FEBFFFF7FEBFA8
:100C8000FFF7FEBFFFF7FEBFFFF7FEBFFFF7FEBF98
:100C9000FFF7FEBFFFF7FEBFFFF7FEBFF345010002
:100CA00001F1135812182512F02812C80412680C0A
:100CB000F21040356121C1088106F10904C106F135
:100CC00001086102200200401C444F20020102037F
:100CD000040480170607080901000200040006004A
:100CE00008000A000C00100020004000808512005F
:0D0CF0001DB24804320004F101018201AA86
:0400000508000BD90B
:00000001FF
