:020000040800F2
:1000000020060020F5350008CD310008CF3100086A
:10001000D1310008D3310008D531000800000000BC
:10002000000000000000000000000000D7310008C0
:10003000D931000800000000DB310008DD31000884
:100040001136000815360008193600081D3600085C
:1000500021360008253600088932000829360008B4
:100060002D360008313600083536000839360008CC
:100070003D3600084136000845360008493600087C
:100080004D360008513600083F320008553600084A
:10009000593600085D3600086136000865360008EC
:1000A000693600086D36000871360008753600089C
:1000B000793600087D36000800000000813600080F
:1000C00085360008000000000000000089360008A6
:1000D000000000008D3600089136000895360008B3
:1000E000993600089D36000800000000000000005E
:1000F0000000000000000000000000000000000000
:1001000000000000000000000000000000000000EF
:100110000000000000000000A1360008A53600081D
:1001200000000000000000000000000000000000CF
:1001300000000000000000000000000000000000BF
:10014000A9360008AD360008000000004F33000853
:1001500023330008B1360008B5360008B936000868
:10016000BD360008C1360008000000000000000095
:10017000000000000000000000000000000000007F
:1001800000000000C53600082DE9F047DFF83C5CB0
:1001900005F11C002DED088B01F054F8296ADFF8F9
:1001A000300CB1FBF0F00024401E9FED769BB0F1C7
:1001B000807FB0EE498AF0EE698A09D2DFF8141C1C
:1001C000DFF8142C4860F02010708C600720086065
:1001D0000020687001F0D6F9012001F0D3F9022067
:1001E00001F0D0F9032001F0CDF90121002001F048
:1001F000F8F900F0E7F901281CD141F658360DE076
:1002000000F042FE304600F0EDFF00F049FE00F045
:100210003EFE304600F0E6FF00F03FFE00F0D2F96F
:100220000128EDD000F03CFE00F037FE0120A88050
:1002300000F0BBFB00F0D5F900F042FB42F2107970
:100240009FEDBBAB9FEDBCBA40F2712ADFF88C6B1F
:10025000DFF8688EDFF8887B31E000F0ADF901202F
:100260002870C6F800A000206870B0EE498A01F03E
:10027000A6F900F090F900F01DFE00F008FE00F075
:100280008AF900F00AFE00F0FFFD00F084F900F0AA
:1002900007FE00F0F6FD00F07EF900F0FBFD012006
:1002A000E8704021404601F0A4FA286F4008286712
:1002B0000128F0EE698A04BF49F640402867A87813
:1002C0000328FCD8DFE810F00600050062000501F5
:1002D000F5E7C2E700F070F900F0ECFD00F0DAFDA0
:1002E00000F0DBFD00F0DCFD00F075F91EE000F031
:1002F000CBFD00F0DFFD00F068F900F040F9DFF819
:10030000C01D01F031FD00F051F951EC180B002235
:10031000DFF8B03D01F0E4FD08D800F0C1FD48462B
:1003200000F060FFB0EE498AF0EE698A00F04AF909
:10033000012804BF28780128D9D000F043F901280A
:1003400004BF28780028BAD100F0AAFD00F0ABFD68
:1003500000F03BF900F013F9DFF86C1D01F004FD2B
:1003600000F024F951EC180B0022002301F0D0FD1D
:10037000E3D800F09FFD484600F034FF9FED778BF7
:10038000DBE700BF000000000088834000F08EFD26
:1003900000F080FD00F081FD00F082FD00F01BF90F
:1003A00000206870F0EE698A01F009F900F078FD2C
:1003B0005020A86001222820E8604FF4003100207E
:1003C0002861A02068617820A8610020B865F865E0
:1003D00038667866B86685ED1DBA404601F022FAA7
:1003E00085ED1DBA30E06878002834D195ED1D0AFE
:1003F000DFEDC10A00F0A2F806DB05EB80018A6898
:10040000521C00F0AFF8F8D300F09EF853EC1A2B12
:1004100001F096FD01F066FE01F098FE41EC100B34
:1004200001F0BBFE51EC100B01F05CFE00F0B6F8E1
:10043000686F01F08BFEDFF8D82DDFF8D83D01F0B2
:1004400093FC01F04FFE686795ED1D0AB5EE400A7A
:10045000F1EE10FAC7DA00F017FD00F02BFD0020D6
:100460006867DFEDA60A95ED1D0A00F067F85DD517
:10047000687800285AD195ED1D0ADFEDA10A00F039
:100480005DF806DB05EB80018A68521E00F06AF811
:10049000F8D300F059F853EC1A2B01F051FD01F09C
:1004A00021FE01F053FE41EC100B01F076FE51EC01
:1004B000100B01F017FE00F071F8686F01F046FEB6
:1004C000DFF84C2DDFF8503D01F04EFC01F00AFE44
:1004D000C6E700F071F800F0E9FC00F0E1FCF0EE96
:1004E000698A24B100F0CDFC00F0D7FC03E000F0F5
:1004F000D1FC00F0CCFC00F06EF800206870306099
:100500004FF4FA6000F06EFE24B100F0C3FC00F07E
:10051000BEFC03E000F0B5FC00F0BFFCC6F800A094
:100520004FF4FA5000F05EFE84F00104C7E60000CC
:100530009A9999999999F13F00401C44B4EE600A48
:10054000F1EE10FA7047000095ED1D0ADFEDD70AB5
:1005500080EE200A10EE100A01F0F8BD0000000045
:10056000000000008A6040F6E4411203B2FBF1F1A2
:1005700007F1580242F82010401C0528704700EE91
:10058000100ABDEEC00A10EE100A80B2306053ECC3
:10059000182B00207047286F00F024BE00EE100AD0
:1005A000BCEEC00A10EE100A00F01CBE41EC180BA5
:1005B0004FF47A7000F016BE00224FF4003140462E
:1005C00001F030B9002001F05BB80020687051ECF8
:1005D000180B01F087BD0020E8704021404601F073
:1005E0000BB930B58BB00020DFF8F44704EB800185
:1005F00040F6E4438A6D1203401CB2FBF3F3042877
:100600008B65F3DD0121012000F083FFDFF80C5C36
:10061000284601F0C9FDDFF8080C009004F15801EC
:1006200010200191029005210020ADF80C100490DB
:1006300080214FF40070059106904FF40061202056
:10064000079108904FF40051002009910A906946E3
:10065000284601F0F7FD0121284601F00EFE012198
:100660004FF0005000F067FFDFF8B85B284601F05C
:100670002DFE0221039100200090019000210291A3
:100680006A46284601F03EFE01220021284601F07C
:100690004BFEA26D92B20021284601F053FE0121CB
:1006A000012000F03FFF00F068F9012020602146A2
:1006B000032020710020E071DFF86C0B01F050FE88
:1006C0000C2001F09BFE002040210190009102903F
:1006D00000214FF4403004910590069103910C20C5
:1006E000694601F090FE01210C2001F0A1FE00F00E
:1006F00009F80BB030BD00006746174401401C44A8
:10070000014017444FF4805030B5DFF8D446DFF88D
:10071000185B206093B00220207121460020A07158
:100720000320607100F02EF90D220C21284601F003
:1007300053FE4FF4805000F0E3FE00F09DFBDFF825
:100740007C5901234FF4801200F0B6F801234FF4D6
:10075000803200F0B1F801234FF4003200F0ACF821
:1007600001234FF4802200F0A7F801234FF4002268
:1007700000F0A2F80C21284601F025F84FF4803152
:10078000284601F071F80028F8D00020A06104F19B
:1007900018030420E06110224FF48000206202213F
:1007A000042060620020A062E0622063606300F0C9
:1007B000E2FC00206064A064E0632064A063206524
:1007C000606504F138024FF40010E064022128460D
:1007D00001F075F800F0DBF840F666600090012249
:1007E00000F066F800F0D3F841F6CD400090022208
:1007F00000F05EF800F0CBF842F6333000900422AF
:1008000000F056F800F0C3F843F69A100090082262
:1008100000F04EF80021049105914FF4904008211A
:100820000390069103AA0221284600F08BFF0021C5
:10083000089109910120202107900B9107AA02211C
:10084000284601F0F5F802200C900C2100200E90B3
:100850000D91012010904FF4806140F271200F91B2
:10086000119012900CA9284601F0C6F810212846D4
:1008700000F0BFFF0121284601F007F94FF40021E5
:10088000284600F0B2FFDFF8A419012008604321D8
:100890000020A0726072217200F026FC01224FF449
:1008A0000031284600F0BEFF13B030BD0000C84242
:1008B0000221284601F02EB80221284600F0DCBFB4
:1008C00030B597B000F059F80220DFF81445DFF892
:1008D000585920714FF480410020A07121600320FD
:1008E0006071214600F04EF80D220E21284601F0DD
:1008F00073FD002004210F90109108200021119019
:10090000129113911491159116910FABDFF8AC571A
:1009100010220321284601F04BF800204FF48001FB
:100920000A900B900890099007900D900E900C91F2
:1009300007AA0321284600F0C2FF00210491059177
:100940004FF4106008210390069103AA0321284662
:1009500000F0F8FE00F01BF8A089009001220321AE
:10096000FFF7A7FF4021284600F043FF4FF4801116
:10097000284600F03AFF17B030BD01214FF4802027
:1009800000F0C7BD0020E071284601F0E9BC00205E
:10099000019002906B467047BDEEC00A10EE100A3F
:1009A000DFF8381480B2086070472DE9F04FA1B02D
:1009B0004FF4805000F0A4FD00F05EFA0121012008
:1009C00000F0B0FD01214FF4602000F0A2FDDFF83F
:1009D0001054DFF8E8B60020E8712946032068715A
:1009E00040F6C41402202871A2460020A8714FF4DA
:1009F000706028604FF0904001F0B2FC01210020AF
:100A000000F0EFFD0D22082100F006FA0D22092169
:100A100000F002FA0D220A2100F0FEF90D220B214E
:100A200000F0FAF90C21584600F0CDFE4FF4803169
:100A3000584600F019FF0028F8D00020109004213B
:100A40001191082012900021139114911591169183
:100A5000179110AB0122584600F0AAFF10AB0422F8
:100A60000121584600F0A4FF4FF48070686405F13E
:100A700038020020A864E8632864A86328656865D4
:100A8000E8640021584600F01AFF05F13802012100
:100A9000584600F014FF00200E900D900F9040F289
:100AA0001311079009900C9140F2334000210890F7
:100AB0000A910B9107AA584600F07BFF00200E9088
:100AC0000D900F9007900A9009900B904B2140F2E7
:100AD000C9400C91089007AA0121584600F069FF0F
:100AE00000201E901B9018904FF000611C914FF059
:100AF00000501F9000211A9119911D9118AB03AA63
:100B0000584600F026FE18AB03AA0121584600F013
:100B100020FE4FF490400A21039004910020082108
:100B20000590069103AA0021584600F00BFE002014
:100B30000190029400946B46012200F071F90020AC
:100B400001906B4640F6B83002900090022200F00F
:100B500067F90020019000F058F9604300F5FA7041
:100B600002906B4600F051F9444304F5FA74009486
:100B7000082200F055F903AA0121584600F0E2FDD1
:100B8000002001906B464FF47A7002900090022290
:100B90000121584600F0BEFE4420287242F2107433
:100BA0000020A872687200260120E87240F6E4472F
:100BB00005F1080001F04EFC0123102200215846E7
:100BC00000F01DFE012100F035F9022100F032F99C
:100BD000042100F02FF9082100F02CF900F094FA1C
:100BE00000F078F900F046F941F27D5841F294198D
:100BF000696F494502D20120002104E000204145EF
:100C00008941C943C90F084300F0BB8000F05EFA78
:100C1000E86EE9894843298AB0FBF1F0E86640F6BE
:100C2000FF71E86E7843B0FBF1F040F2F1125043EF
:100C30006423761CB0FBF3F3642E6B67D8D300F00B
:100C400020F900F017F900F025F900F013F9F6E7A4
:100C5000AAF10A0ABAF5FA7F98BF4FF4FA7A00F0BF
:100C6000E3F8322000F0BEFA00F030FA761CA6421B
:100C7000696F94BF0020012000F01FF900F08D8003
:100C800000F00BF900F00FF900F0F4F800F012F9A1
:100C900000F0F0F8F6E700F0F7F800F0EBF800F0FD
:100CA000FFF800F0E7F8688A0028F4D00021698294
:100CB0004FF4FA60C5F8800000260120A882E8827F
:100CC000FFF776FC00F0E0F800F0E7F800F090F8AD
:100CD0003DD000F0B2F84FF0640E5843B2FBFEFE78
:100CE0006422B0FBF2F08142C5F874E0A86704D337
:100CF00000F078F808D3824606E0AAF10A0ABAF5AD
:100D0000FA7F98BF4FF4FA7A00F08EF8322000F0A4
:100D100069FA00F0DBF9761CA642696F94BF0020E7
:100D2000012000F0CAF8D1D000F0BAF800F0BBF80A
:100D300000F0A0F800F0B7F800F09CF8F6E700F03B
:100D4000A6F800F097F800F0A8F800F093F8688A89
:100D50000028F4D000F0A7F800F093F800F097F81E
:100D600000F092F843F6982400F084F800F0A2F81E
:100D700000F090F800F091F800F092F800F07AF8A6
:100D8000E8E700F084F8C5F880400220A88201203E
:100D9000E88200F06FF800F099F900F029F882D0AD
:100DA00000F04BF84FF0640E5843B2FBFEFE642295
:100DB000B0FBF2F08142C5F874E0A867FFF448AFD9
:100DC00000F010F800D3824649E700000000002040
:100DD000A086010010E000E023ED00E0A8770140CC
:100DE000780000200AF10A0A44F20C60824570473C
:100DF000D5F88010AA6F481F824280414B1D934254
:100E00009241D20F52EAD070704795ED1F0ABCEEA6
:100E1000C00A10EE100A70474FF0904001F0DCBAA3
:100E20000021584600F076BD534601220021584665
:100E300000F0A9BD584600F0DCBC288AEA89EB6EB8
:100E40005343B3FBF0F3EB6640F2F11C2B6F5A43B4
:100E5000B2FBF0F0286740F6FF73EA6E286F784324
:100E60007A43B0FBF3F0B2FBF3F240F2F7130CFB62
:100E700002F270472046B5E101214FF0005000F02A
:100E800051BB012000F09BBB032000F098BB022067
:100E900000F095BB012000F09BBB022000F098BB46
:100EA000032000F095BB002000F089BB01202870D2
:100EB000B0EE498A002000F08BBB494502D20122E6
:100EC000002104E0002241458941C943C90F104374
:100ED000084370477CB54FF4887000F001FB012196
:100EE0004FF0805000F015FBD14CD24D022000F0A5
:100EF00001F9284601F0FDFA082000F0FBF8284629
:100F000001F0F7FA01214FF0A04001F061FB0A2047
:100F100000F068F900214FF0A04001F04BFB4FF0CA
:100F2000A04001F03FFB4FF0A04001F04BFB002838
:100F3000F9D14FF0A04005F1300601F038FB3062E6
:100F4000BD480168E1814FF44030002129626862A8
:100F5000A962E96231704FF0A04005F1200101F073
:100F6000F3FA002028606860A860E8602861686182
:100F7000A8612946012028774FF0A04001F09EFA91
:100F800001214FF0A04001F030FB05230122122186
:100F90004FF0A04001F03BFB00F0A1F800F09AF800
:100FA0000028FBD0642000F01DF94FF0A04001F0B4
:100FB0007DFB04214FF0A04001F0C5FB0028F8D0D4
:100FC0004FF0A04001F07CFB20824FF0A04001F0E8
:100FD00072FB0128F9D000214FF0A04001F0D9FAAE
:100FE0004FF0A04001F0F1FA0128F9D001214FF0B3
:100FF000A04001F0AFFB642000F0F4F80520286267
:1010000005F1200100206862A862E86230704FF0AC
:10101000A04001F099FA00202860686029464FF44A
:101020001070A8604FF48060E8600020286168615B
:10103000A8614FF0A04001F041FA05F1340001F041
:1010400079FA2420706005F134014020B06002205C
:10105000306104207061022030734FF0A04001F035
:1010600053FA032202214FF0A04001F02CFB04228E
:1010700004214FF0A04001F026FB12202072002036
:10108000A072607200F030F8012240214FF0A040C1
:1010900001F051FB00F023F800F01CF80028FBD011
:1010A0004FF400304FF48041009001916A460221D4
:1010B000024800F0BEFC00F009F873BD0074014066
:1010C0000000F03F008883400000F0BF4FF0A040D8
:1010D00001F019BB01214FF0A04001F034BB012108
:1010E0004FF0A04001F055BA0120E07204F1080071
:1010F00001F0B0B920602146032020710020E0718A
:101100004FF0904001F02CB938B500F04AF800F0EB
:1011100035F80820206200F060F800F03BF800F09D
:1011200034F800F01FF80822012111E038B500F072
:1011300038F800F023F84FF48050206200F025F8D2
:1011400000F028F800F015F800F00CF8012200215A
:1011500000F011F84FF4C021284600F046FB0020B3
:10116000E08231BD0420E06104F118030020206218
:10117000704702220021284600F01ABC2C4C2F4D4B
:101180000420E06104F1180370470422012128467D
:1011900000F00EBC0020E06104F11803042020627E
:1011A000704738B5224C254D0020E061206204F1E3
:1011B000180300F012F804F11803FFF7DAFF04F146
:1011C0001803FFF7E2FF04F11803284601B0BDE859
:1011D00030400822012100F0EBBB0122002128460B
:1011E00000F0E6BB01B416490098C86648780128AB
:1011F00004BF0022CA66C86E0028FCD101B0704747
:101200000F49C86E10B1CA6E521ECA667047000000
:101210009A9999999999B9BF9999B93F58000240FB
:10122000207400400074004000040048A47701408E
:1012300078000020C0010020BAF7FF1F00740140B1
:10124000000000202DE9F841DFF81023DFF8143307
:1012500001461068002400F00C00082815D1106821
:101260001568C0F38344A41CE80358BFDFF8F802F4
:1012700008D5906A00F00F001D46401CB5FBF0F544
:1012800020462C464443204600E018460860DFF81C
:10129000DC621068C0F30310355CD1F800C02CFA92
:1012A00005F048601768C7F30227F75D20FA07F7D3
:1012B0008F601768C7F3C227F75DF840C860906A6F
:1012C0004FEA101E06F110000EF00F0830F818005B
:1012D0005FEACE6E02D508B1B4FBF0FCC1F810C0D5
:1012E000906A4FEA502C06F110000CF00F0630F80F
:1012F00016005FEACC6603D510B1B4FBF0F000E055
:1013000008684861D06AC60654BF184608688861F4
:10131000D06A860654BF18460868C861D06A460677
:1013200054BF1846086808626000D66AF60505D5FD
:101330000E68A64204BFAF42064600D0CE684E6299
:10134000D66AF60405D50E68A64204BFAF4206462B
:1013500000D0CE688E62D66AB60505D50E68A64264
:1013600004BFAF42064600D0CE68CE62D66A76058C
:1013700005D50E68A64204BFAF42064600D0CE682F
:101380004E64D66A360505D50E68A64204BFAF4244
:10139000064600D0CE688E64D66AB60405D50E68BF
:1013A000A64204BFAF42C86401D0C86888644FF445
:1013B0000040D46A14F0030F02D18C680C6314E06F
:1013C000D46A04F00304012C02D10D680D630CE013
:1013D000D46A04F00304022C08BF086305D0D46A61
:1013E00004F00304032C08BF0B63D46A14F4403FD9
:1013F00002D18C684C6317E0D46A04F44034B4F52D
:10140000803F02D10D684D630EE0D46A04F440348D
:10141000B4F5003F08BF486306D0D46A04F44034F2
:10142000B4F5403F08BF4B63D46A14F4402F02D197
:101430008C688C6317E0D46A04F44024B4F5802FE0
:1014400002D10D688D630EE0D46A04F44024B4F533
:10145000002F08BF886306D0D46A04F44024B4F592
:10146000402F08BF8B63D46A14F4401F02D18C68EC
:10147000CC6317E0D46A04F44014B4F5801F02D1A1
:101480000D68CD630EE0D46A04F44014B4F5001F77
:1014900008BFC86306D0D46A04F44014B4F5401FF2
:1014A00008BFCB63D46A14F4400F08BF88680CD01F
:1014B000D46A04F44004B4F5800F0FBF0868D46AFE
:1014C00004F44004B4F5000F01D1086406E0D06ACA
:1014D00000F44000B0F5400F08BF0B64BDE8F18197
:1014E000010F1F4A04D0136823F47853136003E0FC
:1014F000116821F4F8711160136818431060704787
:101500001B490A6822F480520A600B68184308607D
:101510007047184A0029116814BF084321EA0000E7
:1015200010607047144A0029116814BF084321EA6B
:10153000000010607047114A0029116814BF084369
:1015400021EA0000106070470D4A0029116814BF9D
:10155000084321EA000010607047000004100240B8
:101560002C10024000127A0000093D007C0100208E
:101570003010024014100240181002401C100240AB
:10158000101002401CB504460FF2181000F073F85A
:101590000FF2081131F814000090012100208DF89D
:1015A00006008DF8041003208DF805008DF8071053
:1015B0006946384850F8240000F0D2FE13BD0FF2FF
:1015C000DC01344A31F8101052F820008161704774
:1015D0000FF2C8012F4A31F8101052F8200001858F
:1015E000704730B504460FF2D00085B00D4600F0CC
:1015F00042F801210120FFF795FF0FF2B80030F803
:1016000014000390002102208DF813008DF81010B3
:1016100003A9214850F8240000F0A2FE012D28D192
:101620000FF2A000015D0FF29800005D01F0A0F83C
:101630000FF2880030F81400019000218DF8081096
:1016400008208DF8090001218DF80A1001A801F089
:10165000A3F80FF27400005D8DF800000F218DF8E3
:1016600001108DF80210684601218DF8031000F07A
:10167000F1FE05B030BD50F824000121FFF749BF4D
:101680000FF23001044A31F8101052F8200000F037
:101690009CBE0000AC010020BC0100204000000105
:1016A00000028000000004000000040000000400AC
:1016B0000000040001000000000002000000000023
:1016C00000000000000000000600F0B402461068B0
:1016D00095681318506803EB5004C00721D54D449A
:1016E0001FE0F0BC02F10C00704713F8017B05F815
:1016F000017B491EF9D1A0B1B60813F8011B06F011
:101700000306032E08BF13F8016B01EB06214942C3
:10171000801C294405D011F8016B05F8016B401EAF
:10172000F9D1A342DDD013F8016B16F0030104BF19
:1017300013F8011BC91C30090F28DAD113F8010B6B
:101740000F30D6E7052904BF114600F0A6B900F016
:10175000B9B970B50E46052E04461D462AD111466C
:1017600000F09BF92268D4F8A033A869696823F4D3
:1017700080330343286822F02002024322F40062EF
:101780000A43A868E96822F48062024322F0C0623A
:101790000A432869696922F00062024322F040424C
:1017A00042EA8102E86922F0005202432260C4F852
:1017B000A03370BD00F086F92A4631462046BDE8C8
:1017C000704000F09BB9D0F8CC2311F1010F04D187
:1017D00022F0020141F0010104E022F00D02114368
:1017E00041F00201C0F8CC13704702681143016058
:1017F0007047C0F894137047C0F89813704738B515
:10180000D443042906D94D1F0BD1002BC16800D049
:101810004BE04DE000F043F800D04CE00C40C0F845
:101820008C4031BD002AD0F8902314BF114322EA26
:101830000101C0F890137047042902D94B1F07D14A
:1018400007E000EBC110D0F888100A43C0F88820E8
:10185000704781680A438260704700BFD0F88C23CC
:101860001143C0F88C13704702460020D2F8882339
:101870000A4218BF0120704738B5D443042906D95D
:101880004D1F0BD1002BC16800D00EE010E000F01E
:1018900006F800D00FE00C40C0F88C4031BD00EBE2
:1018A000C110002BD0F88C1070470A43C26031BDC4
:1018B0000C40C46031BD0A43C0F88C2031BDF0B586
:1018C00000EBC11000F180031C689E6E5D6E586DC8
:1018D00011794748064001F01F01906897690E434F
:1018E000D168064325F480750D431069116825F40D
:1018F000F055054324F040040C43D069516924F4A9
:101900008024044324F0FC740C431C609E665D66D6
:101910005F65F0BD00EBC110012A81B000F18001CC
:1019200006D0022A07D0042A1AD0082A1AD015E0B5
:101930001A68CA6112E018684862586870B10A688B
:1019400022F44052104308605868B0F5005F18D088
:101950005A68B2F5405F01D19868886201B070475B
:101960001868FAE71868C86258680028F6D00A684C
:1019700022F4404242EA80020A605868B0F5005FF3
:10198000E6D19A68D5E700EBC1109C30012A81B0FE
:1019900007D0022A07D0042A07D0082A08BF03610B
:1019A00004E0036002E0836000E0C36001B07047C0
:1019B000F4E010B500EBC1110E48D1F8B83014684E
:1019C0000340506843EA8423034390685469034307
:1019D00010690343D0680343906943EA0443034317
:1019E000106A0343D0690343C1F8B83010BD00004A
:1019F000E0FFFF7F0020FF3D10B500F568731C6815
:101A00000A68486824F00204144324F03C040443A8
:101A10008A68C86824F47074144324F4806404430E
:101A200008695860486998608869D8601C6010BD72
:101A3000EFE018B500F5607301291C6806D0022993
:101A40000BD0042911D0082916D01CE0106824F40A
:101A5000E02404435068D86315E0106851681964A5
:101A600024F4601444EAC0040DE01068516859641D
:101A700024F0E07444EA801410685168996424F0FA
:101A8000606444EA40241C6011BDD0F8A0235208D1
:101A900041EA4201C0F8A01370470268D208D200A0
:101AA000026003688A6813430360026822F0180228
:101AB00002600368CA68134303600A6842614968A8
:101AC0008161704710B500EBC11000F180010B6817
:101AD000DB08DB000B600C68906804430C6008684E
:101AE00020F0180008600B68D06803430B60106892
:101AF00048615068886110BD00000000F0B500EB3F
:101B0000C115D5F88060D0F8A0731468536826F02A
:101B10002006264326F400661E439468D36826F404
:101B20008066264326F0C0661E431469536926F07A
:101B30000066264326F07046D4691E4326F400361C
:101B4000B4F1005F08BF46F40036042921D8DFE86D
:101B500001F003090F151B00916927F4003747EACC
:101B6000410716E0916927F4802747EA810710E0D2
:101B7000916927F4002747EAC1070AE0916927F431
:101B8000801747EA011704E0916927F4001747EA34
:101B90004117C5F88060C0F8A073F0BD38B500EB00
:101BA000C11000F1BC0100248D6A012A14D0022A60
:101BB00017D0042A10D0082A13D0102A0CD0202ABB
:101BC0000FD0402A08D0802A0BD0B2F5807F03D0F6
:101BD000B2F5007F05D009E0586808609868486051
:101BE00004E05868886010249868C860FE20A0400F
:101BF00085431A68D868024318690243586902434A
:101C000098690243D869024302FA04F42C438C62B7
:101C100031BD78B500F56C7301291E685C689D685C
:101C200014D002291ED0042929D0082933D0102924
:101C30003DD0202948D0402953D080295FD0B1F52C
:101C4000807F6AD0B1F5007F75D071BD1068B6098C
:101C500040EA861650680643906806431E60106985
:101C600006432FE0116800F076F826F47C66014305
:101C700046EA81161E60116946EA811622E000F0EC
:101C80006EF826F47C36044346EA04361E60116979
:101C900046EA013616E000F062F826F47C060443BA
:101CA00046EA84461E60116946EA81460AE000F071
:101CB00056F826F07C56044346EA04661E60116915
:101CC00046EA01661E6071BDD0682D0940EA05151F
:101CD0001068640940EA441450680443906804435F
:101CE00036E0D068116825F4707545EA801500F07B
:101CF00032F824F4F864014344EA811428E0D068FF
:101D0000116825F4704545EA003500F024F824F404
:101D1000F834014344EA01341AE0D068116825F42C
:101D2000701545EA804500F016F824F4F8040143E4
:101D300044EA81440CE0D068116825F0706545EAFA
:101D4000006500F008F824F0F854014344EA016407
:101D50005C609D6071BD5068014390687047146875
:101D6000506804439068704770B44FF0004591EAA2
:101D7000030F40F19D856B40841A71EB030604D27A
:101D80006E40001BB141121973414FF4001C1CEB53
:101D9000410F34BF7CEB430682E00C0DA4EB1356DD
:101DA000362E7BDC012E45EAC32341DC43EA525345
:101DB00012BFD20292025B08240545EAC12141EA22
:101DC0005051D2EBC020994125D407D1B0FA80F60A
:101DD00010FA06F162D00020203608E0B1FA81F650
:101DE000B140C6F1200220FA02F21143B0404FEA9E
:101DF000F474B4EB465434F001064FEA74040AD884
:101E0000D6F50016760D04F00044F04061FA06F2B3
:101E10005040F1404840C00A40EA415021F00041A2
:101E200028BF5FEA500550F1000044EBD12135E0B6
:101E3000DB0A45EAC121C90AB6F120050EDD42EAF6
:101E40000242120CC5F1200603FA06F6EB4042EA04
:101E500006056D42984161F100010DE062FA06F558
:101E6000F240554063FA06FC82EA0C02F3405A4005
:101E70006D42904161EB030111F4801F05D1641E96
:101E8000620502D06D004041494121F480114308B0
:101E900075F1004350F1000041EB045170BC7047F4
:101EA0001CEB410F15D223F0004352EA43060BD03E
:101EB0004FEA4C0CBCEB410F04D80C0D661E342EBF
:101EC000B7DDEBE7801A994150EA410608BF0021CF
:101ED000E4E708BF1CEB430F28BF6FF00001DDE70C
:101EE0004FF4001C1CEB410F94BF1CEB430F09E0A7
:101EF00041EA030C50EA4C0C52EA0C0C03D28B4220
:101F000008BF8242704714BF994290427047000058
:101F10004FF4001C1CEB410F94BF1CEB430F09E076
:101F200041EA030C50EA4C0C52EA0C0C03D29942E1
:101F300008BF9042704714BF8B4282427047000036
:101F4000B0B581EA030C0CF0004C40F2FF7515EAC5
:101F500011541DBF15EA1357AC42AF4239E0E419E2
:101F600023EA455343F48013C90241F0004141EA9A
:101F7000505EC7021100A7FB020200284FF00000CC
:101F8000EEFB01204FF00001E3FB072118BF42F0F8
:101F90000102401800214941E3FB0E01A4F58064D1
:101FA0000F0302D252004041494154F101046CDD5B
:101FB000470872F1004250F1000051EB0451A1F5C5
:101FC00080115CBF41EA0C01B0BD4CEA0551002014
:101FD000B0BD05EA1357AC4214BFAF4241E050EA2E
:101FE000410E1CBF52EA430E02E061460020B0BD24
:101FF00024423C441BD15FEA070EF6D0090302BF1E
:1020000001460020AEF1140EB1FA81F7AEEB0704E1
:1020100001FA07FE0C37C7F1200100FA07F7C840A4
:102020004EEA000E23EA455343F48013A2E733F04F
:102030000043B3FA83F704BFB2FA82FE77440B3F42
:10204000E41BB7F1200E2FBF02FA0EF3BB40C7F11D
:10205000200E22FA0EFE38BF43EA0E03BA40641C7B
:1020600082E750EA410E14BF52EA430E6FF00001BE
:102070004FF4001717EB430F8ABF194617EB410FB8
:10208000B5E74CEA05510020B0BDD4F10104B4F12C
:1020900020070FDAC4F12007520828BF42F00102DE
:1020A00010FA07F501FA07F7E1BF2A43E040384389
:1020B000E1400FE0352C98DCC7F1200452EA4002E1
:1020C00020FA07F218BF42F0010231FA07F0A140EE
:1020D0000A43002172F1004250F1000051EB0C0163
:1020E000B0BD000001F000428B1AA3F16051B1F5C0
:1020F000801F0ADBB1F17F6F1FD242EAC102C1002B
:1021000071F1004142EB507070470B15C3F10903A8
:10211000212B10D2890241EA9051800201284941C5
:1021200041F0004121FA03F0C3F12003994071F11D
:10213000004150417047100070476FF0000013EBF2
:10214000103F5CBF000E42EAC0507047C0F3C75159
:1021500081B1FF2906D0C110400721F0E04101F113
:102160006051704741020CBF40F4E0016FF0004144
:102170000020704700F0004100020AD0B0FA80FC55
:1021800000FA0CF001F16051A1EB0C5101EBD021F0
:102190004005704741EC100B01BD80B551EC100BB0
:1021A00000F0F0FBF6E7000002684FF6FE710A400F
:1021B00002600021016041608160C160354A36499A
:1021C00090421DD0354A904221D0354B984225D0BF
:1021D000344A904229D0344B98422ED0334A904210
:1021E00003D10A6842F4700222E0314B984203D1D5
:1021F000086840F0706023E02E4A2F49904203D1D6
:10220000086840F00F001BE02C4A904203D10A6896
:1022100042F0F0020CE02A4B984203D1086840F4E7
:1022200070600DE0274A904204D10A6842F470427F
:102230000A607047244B984203D1086840F470202C
:102240000860704703688A686FF30E1313430A6AC5
:1022500013430A6913434A6913438A691343CA69DA
:1022600013434A6A13438A6A134303608A894260AC
:102270000A6882604968C160704721B1026842F013
:1022800001020260704703684FF6FE710B40036065
:102290007047000008000240040002401C00024099
:1022A0003000024044000240580002406C000240EE
:1022B0008000024008040240040402401C04024062
:1022C00030040240440402405804024080B50C49E6
:1022D000884208D101214FF00050FFF735F9002165
:1022E0004FF0005007E001214FF08060FFF72CF91C
:1022F00000214FF08060BDE80440FFF725B90000E1
:102300000074004030B50468156840F6FE738B40D9
:102310009C4353681D439368D2681D43154305FAD7
:1023200001F12143016030BD81B00123002A026820
:1023300003FA01F114BF114322EA0101FFE7016032
:1023400001B0704781B00023009300900831FFE78F
:102350000098091800910098026001B070470000D1
:10236000F0B5002201250B6895402B40AB4228D1E7
:10237000530003249C400E79E443012E18BF022E23
:1023800010D186682640866086684F799F403E431C
:102390008660868826EA0505858085888E79964040
:1023A0003543858005682540056005680E799E40A7
:1023B00035430560C5682C40CD7905FA03F3234306
:1023C000C360521C102ACDD3F0BD02460020128AF1
:1023D0000A4218BF0120704710B5CB0800EB8300FC
:1023E000890001F01C01036A0F248C40A34303629F
:1023F0008A40036A1A43026210BD0000144908189B
:10240000002202607047124A101803680A6803F03D
:10241000030313434A6813438A6813430A69134347
:10242000CA6813434A69896913430B4303607047C1
:10243000074A81B0101821B1016841F00101016023
:1024400003E0026852085200026001B070470000C9
:102450001C00014070B50378C1781C460122D9B137
:10246000124B1B68457803F4E063C3F5E0631B0A75
:10247000C3F104018D4081780F26DE4031400D43C9
:102480000B4B2D011D5501780A4B01F01F008240B6
:10249000490943F8212070BD03F01F03064802FAE2
:1024A00003F3640940F8243070BD00000CED00E037
:1024B00000E400E000E100E080E100E0C368DFF854
:1024C0009C2213400A6813434A6813438A681343E3
:1024D000CA6813430A6913434A6913438A69134359
:1024E000C360026B097F1209491E41EA02120263AE
:1024F00070470021016041608160C16001614161FC
:10250000816101210177704710B5C26C0B7A0A68AE
:102510000C695B1E13434A681343CA6843EA0223EB
:102520004A69896943EA843343EA025343EA81638F
:10253000C36410BD00210160416001210172C160CE
:102540000161416181617047F0B5DFF81432DFF855
:102550001452DFF80462DFF810420F68B0F1A04FA8
:1025600016BFB0421A682A6814404A6817438A683E
:102570001743CA68097C47EA023747EA01273C4308
:10258000B0F1A04F18BFB04201D11C60F0BD2C606B
:10259000F0BD0029816814BF41F0010141F0020142
:1025A00081607047816841F0004181607047D0F8D8
:1025B000B4007047826822F08042826082681143D2
:1025C000816070478068C00F70478068400874E081
:1025D000826822F0405282600029816814BF41F075
:1025E000805141F0005181607047B0F1A04F1BBF96
:1025F000594A90425A485B4821B1016841F4800130
:1026000001607047026822F4800202607047F8B5EA
:1026100006271F25052A06DA12FB07F2066B00F0D3
:102620003EF804631AE00A2A07DA521F12FB07F287
:10263000466B00F034F8446310E00F2A07DA0A3AD8
:1026400012FB07F2866B00F02AF8846306E00F3A6B
:1026500012FB07F2C66B00F022F8C4630A290DDBF7
:10266000826982690A3901EB410107248C40A24347
:1026700082618B40826913438361F1BD4269426983
:102680004D1E382405EB4505AC40A243426101EBE9
:102690004101426903FA01F111434161F1BD9540E5
:1026A00026EA050501FA02F42C437047816841F0DF
:1026B0000401816070478068800800F00100704765
:1026C000006C80B2704738B50A290CDB0A3901EB7F
:1026D0004101836907248C40A34383618A40836955
:1026E0001A43826131BD4D1E4369382405EB45050F
:1026F000AC40A343436101EB4101436902FA01F19C
:102700001943416131BD816841F008018160704722
:10271000816841F020018160704781B00022009201
:102720000090890000987C31091800910098006899
:1027300080B201B07047002A426814BF114322EAF8
:102740000101416070470246002012680A4218BF2A
:1027500001207047016070470001005007C0FFFD75
:102760000803005008070050E010FCFF01607047AC
:1027700030B5084B8A0021F0030102F00C025C58CE
:102780000F259540AC435C5090405D58284358500D
:1027900030BD000008000140F8B50468012204F0D3
:1027A0001F0502FA05F58179ED4364090029374BCD
:1027B00052D003EB4414364926683540256004683E
:1027C00000F052F8296802FA04F421EA04042C60AB
:1027D000016804794D0904EB45141C1901F01F012F
:1027E000256802FA01F1294321600468294900F0B3
:1027F0003BF82E6802FA04F426EA04042C6005680B
:10280000254C6E0904EB461605F01F05376802FAE1
:1028100005F527EA050535604779056805F01F06C7
:102820006D09102F02FA06F60FD101EB45110B6866
:102830001E430E600068410904EB411400F01F00C4
:10284000216882400A432260F1BD07EB45101B1846
:10285000186806431E60F1BD007900EB44101B1898
:10286000186805401D60F1BD650901EB451504F0D0
:102870001F04704700BF012200F01F018A40400979
:10288000064901EB4010026070470000000401405F
:1028900004040140080401400C04014014040140F8
:1028A00070B44FF0004591EA030F7FF565AA6B40C5
:1028B000841A71EB030603D2001BB1411219734154
:1028C0004FF4001C1CEB410F34BF7CEB430442E08F
:1028D0000C0DA4EB1356352E4FDC45EAC323DB0A5F
:1028E00045EAC121C912B6F120050DDD63FA05F6EE
:1028F000EB4086EA0305124218BF45F00105C018F7
:1029000051F100010CD213E062FA06F5F240554095
:10291000F3415A40B340F3405A408018594107D31D
:1029200049085FEA30005FEA350528BF45F0010538
:1029300001F58011420875F1004250F1000041EBB1
:1029400004514E0016F5001F70BC38BF70470020C0
:10295000090D090570471CEB410F10D252EA4306DE
:102960000BD0BCEB410F05D80C0DAB43661E342ECB
:10297000B6DD02E0AB438018594170BC704770BCB3
:102980007047000041EC100B480080B54015401C1A
:102990000ED148004015401C01D1090305D151EC6E
:1029A000100BC80F18BF9FED080B51EC100B04BDA6
:1029B000002100910022034B51EC100B00F008F8AD
:1029C00004BD00BF0000F03F000000000000000058
:1029D000F8B52DED0A8B41EC1A0B48004015109DFF
:1029E000401C43EC182B24D051EC1A0B21F0004171
:1029F0000022914208BF90421BD051EC180B4800B6
:102A00004015401C15D051EC180B31F0004108BFA7
:102A100090420ED051EC1A0BDFF87433FFF778FABE
:102A200080F0B18051EC180B9FED870B01F0004254
:102A3000BAE051EC1A0B48004015401C02D10903C2
:102A400040F0A08151EC180B48004015401C01D10A
:102A500009035DD151EC180B20F0000221F0004376
:102A60000020834208BF824208D151EC1A0B480073
:102A70004015401C4CD109034AD10DE048004015D7
:102A8000401C12D1090310D151EC1A0B480040151B
:102A9000401C3DD109033BD1AFF30080BDEC0A8B54
:102AA0004FF0FF306FF00041F4BD51EC1A0B21F0F4
:102AB000004100220023994208BF90422BD151ECE3
:102AC000180B4800400D05EB000237D151EC180BF4
:102AD00021F00041994208BF984206D02A4651ECA5
:102AE000180B00F081F941EC180B51EC180B20F099
:102AF000000221F000430020834208BF824205D03B
:102B000048004015401C03D1090301D1AFF30080F8
:102B100051EC180B38E151EC1A0B48004015401CE1
:102B20002AD1090328D153EC1A2B51EC180BBDEC18
:102B30000A8B01B0BDE8F040FFF702BA002AC5DDFC
:102B400040F2FF7082420FDB9FEDA50B51EC100BA2
:102B5000084653EC182B03F00041084353EC102BAC
:102B6000034643EC182BC0E76FF31E5141EA0251B4
:102B700053EC182B0B46F4E751EC180B9FED320B7E
:102B800001F0004210E00122824BFFF7A9F911D8B1
:102B90009FED930B51EC100B0A4651EC180BAFF361
:102BA000008001F00040024351EC100BBDEC0A8B99
:102BB0001146F4BD53EC1A2B77487849FFF7C0F95A
:102BC00041EC100B53EC102B9FED759B03F0004272
:102BD00051EC190B0C46144353EC192B51EC100B10
:102BE0002346FFF7C1F800F09DF9044600F0B8F95C
:102BF00041EC1B0B53EC1B2B4FF078406A49FFF75D
:102C00009FF902460B4651EC1A0BFFF749FE0646A8
:102C10000F4653EC1B2B65486549FFF791F90246B7
:102C20000B4630463946FFF73BFE41EC1A0B21F0CC
:102C3000004100225F4BFFF76BF909D2B0EE48AAC2
:102C4000F0EE68AA56E000BF00000000000000009F
:102C500053EC1A2B51EC1A0BFFF772F941EC1B0BDA
:102C600053EC1B2B54485549FFF76AF9544A554B0E
:102C7000FFF77AF853EC1B2BFFF762F941EC1C0BC2
:102C800053EC1B2B50485149FFF75AF9504A514B0E
:102C9000FFF76AF853EC1B2BFFF752F953EC192B93
:102CA000FFF762F853EC1A2BFFF74AF941EC190BC6
:102CB00053EC1C2BFFF758F89FED47AB53EC1A2B46
:102CC000FFF752F806460F4651EC1C0B53EC192B3C
:102CD000FFF7E6FD53EC1A2BFFF746F802460B46CA
:102CE0003046394600F04EF953EC182BFFF728F91F
:102CF00041EC1A0B51EC1A0B2A194800400D02EB5B
:102D000000031DD0002B1BDD40F2FF7083420DDB62
:102D10009FED330B51EC100B084653EC1A2B03F0CC
:102D20000041084353EC102B034606E06FF31E519D
:102D300041EA035153EC1A2B0B4643EC1A2B0EE0DD
:102D400051EC1A0B21F000410024A14208BFA0421F
:102D500005D051EC1A0B00F047F841EC1A0B51EC7E
:102D60001A0B20F0000221F000430020834208BF2C
:102D7000824205D048004015401C03D1090301D10F
:102D8000AFF3008051EC1A0BBDEC0A8BF4BD0000D0
:102D900000C89CC000C89C40FE822B654715F73FC9
:102DA000000000000000E03F422EE63FF2E4D5BC08
:102DB000E7E84B3E0000903C112E5781A03F503F6A
:102DC0005843128C8F71BC3F4BE8A541B752013F6D
:102DD0000BBDF3DAE8708C3F000000000000F03F0C
:102DE000000000000000F07F124254D440F2FF7C4B
:102DF0001CEA11530FD0634531D09B1863453CBF8B
:102E000001EB0251704701F0004141EA0C510020F2
:102E1000AFF30080704750EA410320D001F0004C2E
:102E200091EA0C011CD0B1FA81F30B3B9A420DD907
:102E3000D21A994051EA0C01C3F1200C20FA0CFC83
:102E400061449840531C40F2FF7CD7E7914041EA2F
:102E50000C01C2F1200C20FA0CF31943904070478A
:102E6000B0FA80F31533202BE0D3202AEED3203A9A
:102E7000203B9A4209D9D21A00FA03F141EA0C0127
:102E80000020531C40F2FF7CB8E700FA02F141EA4F
:102E90000C0100207047524240F2FF7C1CEA1153A3
:102EA0000DD06345DBD0B2EB030C3CBFA1EB02516C
:102EB00070470CF1010221EA035141F4801150EAFC
:102EC000410CCCD001F0004C352A27DC30B481EA2B
:102ED0000C01B2F1200309DAC2F12003044601FA21
:102EE00003F5D0402843D1409C400CE0C3F12002C0
:102EF000450020FA03F418BF44F0010421FA03F05E
:102F000091400C43002174F1004550F1000051EB59
:102F10000C01244230BC7FF47BAF70476146002037
:102F200076E70000C1F30A5340F2FE329B1A14DD2B
:102F3000D3F120034FEAE17208DDC90241EA5051A2
:102F400041F00040D84080185040704703F2E13013
:102F500010B1D24382F0004070470020704700005B
:102F6000C11768B14840401AB0FA80F29040D21CB4
:102F7000C907C2F5846241EA025202EBD021400542
:102F800070470000F0B540F2FF7581EA030C0CF0C9
:102F9000004C15EA11541DBF15EA1357AC42AF425D
:102FA000E5E0BC41C1F31301C3F31303801A994157
:102FB00043F4801304D2641E4000494180185941F3
:102FC000C90241EA5051B1FBF3F603FB1611A2FB13
:102FD0000675D7EBC020A94102D2761E8018594150
:102FE000C90241EA5051B1FBF3FE03FB1E11A2FBE3
:102FF0000E75D7EBC020A94103D2AEF1010E8018A7
:103000005941890241EA9051760546EA8E2EB1FB7C
:10301000F3F603FB1611A2FB0675D7EB8020A9413E
:1030200002D2761E80185941C90241EA50514EEA37
:10303000060EB1FBF3F603FB1611A2FB0675D7EBE8
:10304000C020A94102D2761E80185941C90241EA26
:103050005051B1FBF3F703FB1711A2FB0735D3EB7C
:10306000C020A94167F100070CBF004247F00107EB
:1030700066F3D5274FEA1E31B80814F5806412DDD7
:10308000BD0775F1004250EB0E5051EB045111F5A4
:10309000801F5CBF41EA0C01F0BD4CF07F6141F044
:1030A000E0410020F0BDBD076D0840EA0E5041F43C
:1030B0008011D4F10104B4F120060ADAC4F120062B
:1030C0000200E04001FA06F3E1401843B240154324
:1030D0000EE0342C13DCC6F1200445EA40056D08EF
:1030E00020FA06F2154321FA06F0A1400D43002113
:1030F00075F1004250F1000051EB0C01F0BD0020D1
:103100005FEA0C01F0BDCFB992185B41B3FA83F7C7
:1031100004BFB2FA82F6BF190B3FB7F120062FBFEA
:1031200002FA06F3BB40C7F1200622FA06F638BFC2
:103130003343BA401CB1E419641E33E77F4231F0D7
:103140000041B1FA81F404BFB0FA80F6A4190B3C37
:10315000B4F120062FBF00FA06F1A140C4F1200609
:1031600020FA06F638BF3143A0403C1B1AE7AC42B8
:103170001ABF05EA1357AF4212E050EA41061CBFDE
:1031800052EA4306BFE750EA4107304661461CBF9A
:1031900041EA0551F0BD52EA430C08BFC143F0BDFE
:1031A00000204FF4001616EB410F98BF16EB430FAB
:1031B00008BF16EB410F24BFC14305E016EB430FD8
:1031C0000CBF61464CEA0551F0BD00007047FEE7B8
:1031D000FEE7FEE7FEE770477047704710B5FEF761
:1031E0000FF87648764900780A78012825D1487882
:1031F000401C4870C0B205281FDB0020714B48708E
:103200001C8871480460887868B9521CD2B21F2AA1
:1032100013DB18882030188000221B88B3F5247F28
:103220000BDB012008E01888441E1C8040F20114CA
:103230001B88A34201DA002088700A7010BD80B597
:1032400040214FF0A040FFF77EFAB8B102220121E1
:103250005E48FEF7F1FA01214FF0A040FFF75DFA5A
:103260005B49086002214FF0A040FFF756FA594928
:10327000086040214FF0A040FFF778FABDE8024017
:103280004FF0A040FFF744BA10B50120FEF7A0F9B7
:103290000220FEF79DF95048504A01210180108814
:1032A000002839D14E4A4F4C11700020FEF7E8F942
:1032B00001280DD1641EF8D100204B490870FFF79A
:1032C000D9FA4A480178491E8941C90F017010BDD9
:1032D00045480178491C01704FF48C7244490A60DA
:1032E000F0224A60C8228A604FF4B472CA604FF478
:1032F000A0720A61002251F822301B0340F6E44418
:10330000B3FBF4F441F82240521C052AF3D30178B0
:103310000429A4BF01220270BDE810400020FFF77D
:10332000A9BA80B53349088850B1334A11880129B8
:1033300004D0022908BFFDF7F9FE01E0FDF7E4FE25
:10334000BDE80840102200212048FEF775BA10B5EC
:103350004FF400311D48294CFEF77FFA2848294ACE
:1033600090ED000AD0ED000A2748BCEEC00A10EE2E
:10337000101AB8EE400A70EEC00AB2EE001A60EE03
:10338000810AC0ED000AFCEEE00A10EE900A02EBA2
:103390000010227830F8120020B1491C00EE101AFB
:1033A000B8EE400AFDF7F8FA2078401C207021782A
:1033B0000829A4BF0020207010BD000003000020D9
:1033C00018020020840000201C7601400074014097
:1033D000E4000020E80000208A0000200400002013
:1033E0000100002040420F000200002000000020E9
:1033F000D00000208E0000208C0000201B02002046
:1034000074000020FC00002014020020364882B026
:10341000016841F4700101603449086840F001001E
:1034200008604A68324802404A600B6831480340ED
:103430000B60086820F480200860CA6A2E481209D0
:103440001201CA620A6B02400A6300208860009081
:103450000190086840F4803008600A6842F48022D5
:103460000A60086800F4003001900098401C009049
:10347000019818B9009AB2F5A04FF2D10868400C33
:1034800000F0010001900198012807D14A6822F458
:103490007C124A60486840F4E810486012221748DD
:1034A00002604868486048684860486840F4806046
:1034B00048600A6842F080720A6008688201FCD5A0
:1034C0004868800880004860486840F00200486012
:1034D000486800F00C000828FAD14FF00061084855
:1034E000016002B07047000088ED00E0001002406B
:1034F0000CC0C008FFFFF6FECCFEF0FF002002402B
:1035000008ED00E019E050F8042BD30744BFA9F1FF
:1035100001039A18091F0023042942F8043BF9D239
:103520005FEA817C134604D54FF0000CA2F800C07E
:103530009B1CC90744BF0021197050F8041B0029C7
:10354000E1D1704710B5074979441831064C7C44E5
:10355000163404E00A68081D114488470146A14258
:10356000F8D110BD2C000000480000004EF6885134
:10357000CEF20001086840F470000860BFF34F8F7E
:10358000BFF36F8F4FF00070E1EE100A704700003C
:1035900075FFFFFF5C000000C0010020000000007C
:1035A0002BE1FFFF24010000E000000000000020EC
:1035B00000F00BF8002801D0FFF7C4FF0020AFF3A4
:1035C0000080FCF7E1FD00F002F80120704700F0F8
:1035D00001B800000746384600F002F8FBE700009B
:1035E00080B5AFF30080024A11001820ABBEFBE7A4
:1035F0002600020001488047014800470D340008BA
:1036000005360008AFF30080FFF7B0FFFFF7D0FFEB
:10361000FFF7FEBFFFF7FEBFFFF7FEBFFFF7FEBFDE
:10362000FFF7FEBFFFF7FEBFFFF7FEBFFFF7FEBFCE
:10363000FFF7FEBFFFF7FEBFFFF7FEBFFFF7FEBFBE
:10364000FFF7FEBFFFF7FEBFFFF7FEBFFFF7FEBFAE
:10365000FFF7FEBFFFF7FEBFFFF7FEBFFFF7FEBF9E
:10366000FFF7FEBFFFF7FEBFFFF7FEBFFFF7FEBF8E
:10367000FFF7FEBFFFF7FEBFFFF7FEBFFFF7FEBF7E
:10368000FFF7FEBFFFF7FEBFFFF7FEBFFFF7FEBF6E
:10369000FFF7FEBFFFF7FEBFFFF7FEBFFFF7FEBF5E
:1036A000FFF7FEBFFFF7FEBFFFF7FEBFFFF7FEBF4E
:1036B000FFF7FEBFFFF7FEBFFFF7FEBFFFF7FEBF3E
:1036C000FFF7FEBFFFF7FEBFF0025B000101000144
:1036D00013409C6FB001401C44755183F3310100CD
:1036E0008C12184312F04612C80412680CF20540FE
:1036F00053F0010F4088136B6139C1088106F1094D
:1037000004C106F101086102210120020102030443
:1037100004801706070809010002000400060008DB
:10372000000A000C00100020004000808112001DE3
:08373000B2480400010000484A
:0400000508003605B4
:00000001FF
